{
  "contractName": "BountyCollector",
  "abi": [
    {
      "constant": true,
      "inputs": [],
      "name": "disputeCost",
      "outputs": [
        {
          "name": "",
          "type": "uint256"
        }
      ],
      "payable": false,
      "stateMutability": "view",
      "type": "function"
    },
    {
      "constant": true,
      "inputs": [],
      "name": "arbitrager",
      "outputs": [
        {
          "name": "",
          "type": "address"
        }
      ],
      "payable": false,
      "stateMutability": "view",
      "type": "function"
    },
    {
      "constant": true,
      "inputs": [],
      "name": "bountiesCounter",
      "outputs": [
        {
          "name": "",
          "type": "uint256"
        }
      ],
      "payable": false,
      "stateMutability": "view",
      "type": "function"
    },
    {
      "constant": true,
      "inputs": [],
      "name": "newContractAddress",
      "outputs": [
        {
          "name": "",
          "type": "address"
        }
      ],
      "payable": false,
      "stateMutability": "view",
      "type": "function"
    },
    {
      "constant": true,
      "inputs": [],
      "name": "stopped",
      "outputs": [
        {
          "name": "",
          "type": "bool"
        }
      ],
      "payable": false,
      "stateMutability": "view",
      "type": "function"
    },
    {
      "constant": true,
      "inputs": [],
      "name": "owner",
      "outputs": [
        {
          "name": "",
          "type": "address"
        }
      ],
      "payable": false,
      "stateMutability": "view",
      "type": "function"
    },
    {
      "constant": true,
      "inputs": [],
      "name": "contractExpiration",
      "outputs": [
        {
          "name": "",
          "type": "uint256"
        }
      ],
      "payable": false,
      "stateMutability": "view",
      "type": "function"
    },
    {
      "constant": true,
      "inputs": [],
      "name": "disputesCounter",
      "outputs": [
        {
          "name": "",
          "type": "uint256"
        }
      ],
      "payable": false,
      "stateMutability": "view",
      "type": "function"
    },
    {
      "constant": true,
      "inputs": [],
      "name": "disputeAllowance",
      "outputs": [
        {
          "name": "",
          "type": "uint256"
        }
      ],
      "payable": false,
      "stateMutability": "view",
      "type": "function"
    },
    {
      "inputs": [
        {
          "name": "_durationSec",
          "type": "uint256"
        },
        {
          "name": "_disputeAllowanceSec",
          "type": "uint256"
        },
        {
          "name": "_disputeCostValueGwei",
          "type": "uint256"
        }
      ],
      "payable": false,
      "stateMutability": "nonpayable",
      "type": "constructor"
    },
    {
      "payable": true,
      "stateMutability": "payable",
      "type": "fallback"
    },
    {
      "anonymous": false,
      "inputs": [],
      "name": "contractStoppedByOwner",
      "type": "event"
    },
    {
      "anonymous": false,
      "inputs": [],
      "name": "contractStoppedByAutoDepreciate",
      "type": "event"
    },
    {
      "anonymous": false,
      "inputs": [
        {
          "indexed": false,
          "name": "identifier",
          "type": "uint256"
        }
      ],
      "name": "NewBounty",
      "type": "event"
    },
    {
      "anonymous": false,
      "inputs": [
        {
          "indexed": false,
          "name": "identifier",
          "type": "uint256"
        }
      ],
      "name": "CancelledBounty",
      "type": "event"
    },
    {
      "anonymous": false,
      "inputs": [
        {
          "indexed": false,
          "name": "identifier",
          "type": "uint256"
        }
      ],
      "name": "WithdrawnBounty",
      "type": "event"
    },
    {
      "anonymous": false,
      "inputs": [
        {
          "indexed": false,
          "name": "bountyIdentifier",
          "type": "uint256"
        },
        {
          "indexed": false,
          "name": "proposalIdentifier",
          "type": "uint256"
        }
      ],
      "name": "NewProposal",
      "type": "event"
    },
    {
      "anonymous": false,
      "inputs": [
        {
          "indexed": false,
          "name": "bountyIdentifier",
          "type": "uint256"
        },
        {
          "indexed": false,
          "name": "proposalIdentifier",
          "type": "uint256"
        }
      ],
      "name": "DeclinedProposal",
      "type": "event"
    },
    {
      "anonymous": false,
      "inputs": [
        {
          "indexed": false,
          "name": "bountyIdentifier",
          "type": "uint256"
        },
        {
          "indexed": false,
          "name": "proposalIdentifier",
          "type": "uint256"
        }
      ],
      "name": "AcceptedProposal",
      "type": "event"
    },
    {
      "anonymous": false,
      "inputs": [
        {
          "indexed": false,
          "name": "disputeIdentifier",
          "type": "uint256"
        },
        {
          "indexed": false,
          "name": "bountyIdentifier",
          "type": "uint256"
        },
        {
          "indexed": false,
          "name": "proposalIdentifier",
          "type": "uint256"
        }
      ],
      "name": "NewDispute",
      "type": "event"
    },
    {
      "anonymous": false,
      "inputs": [
        {
          "indexed": false,
          "name": "identifier",
          "type": "uint256"
        }
      ],
      "name": "DeclinedDispute",
      "type": "event"
    },
    {
      "anonymous": false,
      "inputs": [
        {
          "indexed": false,
          "name": "identifier",
          "type": "uint256"
        }
      ],
      "name": "AcceptedDispute",
      "type": "event"
    },
    {
      "anonymous": false,
      "inputs": [
        {
          "indexed": false,
          "name": "identifier",
          "type": "uint256"
        }
      ],
      "name": "WithdrawnDispute",
      "type": "event"
    },
    {
      "anonymous": false,
      "inputs": [
        {
          "indexed": false,
          "name": "withdrawnAddress",
          "type": "address"
        },
        {
          "indexed": false,
          "name": "amount",
          "type": "uint256"
        }
      ],
      "name": "WithdrawnFunds",
      "type": "event"
    },
    {
      "anonymous": false,
      "inputs": [
        {
          "indexed": false,
          "name": "newContractAddress",
          "type": "address"
        }
      ],
      "name": "newContractAddressSet",
      "type": "event"
    },
    {
      "constant": false,
      "inputs": [
        {
          "name": "_name",
          "type": "string"
        },
        {
          "name": "_description",
          "type": "string"
        }
      ],
      "name": "addBounty",
      "outputs": [],
      "payable": true,
      "stateMutability": "payable",
      "type": "function"
    },
    {
      "constant": false,
      "inputs": [
        {
          "name": "_identifier",
          "type": "uint256"
        }
      ],
      "name": "cancelBounty",
      "outputs": [],
      "payable": false,
      "stateMutability": "nonpayable",
      "type": "function"
    },
    {
      "constant": false,
      "inputs": [
        {
          "name": "_bountyIdentifier",
          "type": "uint256"
        },
        {
          "name": "_description",
          "type": "string"
        }
      ],
      "name": "postProposal",
      "outputs": [],
      "payable": false,
      "stateMutability": "nonpayable",
      "type": "function"
    },
    {
      "constant": false,
      "inputs": [
        {
          "name": "_bountyIdentifier",
          "type": "uint256"
        },
        {
          "name": "_proposalIdentifier",
          "type": "uint256"
        },
        {
          "name": "_review",
          "type": "string"
        }
      ],
      "name": "acceptProposal",
      "outputs": [],
      "payable": false,
      "stateMutability": "nonpayable",
      "type": "function"
    },
    {
      "constant": false,
      "inputs": [
        {
          "name": "_bountyIdentifier",
          "type": "uint256"
        },
        {
          "name": "_proposalIdentifier",
          "type": "uint256"
        },
        {
          "name": "_review",
          "type": "string"
        }
      ],
      "name": "declineProposal",
      "outputs": [],
      "payable": false,
      "stateMutability": "nonpayable",
      "type": "function"
    },
    {
      "constant": false,
      "inputs": [
        {
          "name": "_bountyIdentifier",
          "type": "uint256"
        },
        {
          "name": "_proposalIdentifier",
          "type": "uint256"
        },
        {
          "name": "_review",
          "type": "string"
        }
      ],
      "name": "disputeProposalReview",
      "outputs": [],
      "payable": true,
      "stateMutability": "payable",
      "type": "function"
    },
    {
      "constant": false,
      "inputs": [
        {
          "name": "_identifier",
          "type": "uint256"
        }
      ],
      "name": "declineDispute",
      "outputs": [],
      "payable": false,
      "stateMutability": "nonpayable",
      "type": "function"
    },
    {
      "constant": false,
      "inputs": [
        {
          "name": "_identifier",
          "type": "uint256"
        }
      ],
      "name": "acceptDispute",
      "outputs": [],
      "payable": false,
      "stateMutability": "nonpayable",
      "type": "function"
    },
    {
      "constant": true,
      "inputs": [
        {
          "name": "_identifier",
          "type": "uint256"
        }
      ],
      "name": "fetchBounty",
      "outputs": [
        {
          "name": "name",
          "type": "string"
        },
        {
          "name": "description",
          "type": "string"
        },
        {
          "name": "reward",
          "type": "uint256"
        },
        {
          "name": "poster",
          "type": "address"
        },
        {
          "name": "status",
          "type": "uint256"
        },
        {
          "name": "proposalsCounter",
          "type": "uint256"
        },
        {
          "name": "rejectedProposalsCounter",
          "type": "uint256"
        },
        {
          "name": "timestamp",
          "type": "uint256"
        }
      ],
      "payable": false,
      "stateMutability": "view",
      "type": "function"
    },
    {
      "constant": true,
      "inputs": [
        {
          "name": "_bountyIdentifier",
          "type": "uint256"
        },
        {
          "name": "_proposalIdentifier",
          "type": "uint256"
        }
      ],
      "name": "fetchProposal",
      "outputs": [
        {
          "name": "description",
          "type": "string"
        },
        {
          "name": "poster",
          "type": "address"
        },
        {
          "name": "review",
          "type": "string"
        },
        {
          "name": "status",
          "type": "uint8"
        },
        {
          "name": "timestampReview",
          "type": "uint256"
        },
        {
          "name": "timestampCreation",
          "type": "uint256"
        },
        {
          "name": "disputeIdentifier",
          "type": "uint256"
        }
      ],
      "payable": false,
      "stateMutability": "view",
      "type": "function"
    },
    {
      "constant": true,
      "inputs": [
        {
          "name": "_identifier",
          "type": "uint256"
        }
      ],
      "name": "fetchDispute",
      "outputs": [
        {
          "name": "bountyIdentifier",
          "type": "uint256"
        },
        {
          "name": "proposalIdentifier",
          "type": "uint256"
        },
        {
          "name": "timestamp",
          "type": "uint256"
        },
        {
          "name": "review",
          "type": "string"
        },
        {
          "name": "status",
          "type": "uint256"
        }
      ],
      "payable": false,
      "stateMutability": "view",
      "type": "function"
    },
    {
      "constant": true,
      "inputs": [],
      "name": "fetchMyBalance",
      "outputs": [
        {
          "name": "balance",
          "type": "uint256"
        }
      ],
      "payable": false,
      "stateMutability": "view",
      "type": "function"
    },
    {
      "constant": false,
      "inputs": [
        {
          "name": "_amount",
          "type": "uint256"
        }
      ],
      "name": "withdrawFunds",
      "outputs": [],
      "payable": true,
      "stateMutability": "payable",
      "type": "function"
    },
    {
      "constant": false,
      "inputs": [
        {
          "name": "_identifier",
          "type": "uint256"
        }
      ],
      "name": "withdrawDispute",
      "outputs": [],
      "payable": false,
      "stateMutability": "nonpayable",
      "type": "function"
    },
    {
      "constant": false,
      "inputs": [
        {
          "name": "_identifier",
          "type": "uint256"
        }
      ],
      "name": "EmergencyWithdrawBounty",
      "outputs": [],
      "payable": false,
      "stateMutability": "nonpayable",
      "type": "function"
    },
    {
      "constant": false,
      "inputs": [],
      "name": "StopContract",
      "outputs": [],
      "payable": false,
      "stateMutability": "nonpayable",
      "type": "function"
    },
    {
      "constant": true,
      "inputs": [],
      "name": "isExpired",
      "outputs": [
        {
          "name": "",
          "type": "bool"
        }
      ],
      "payable": false,
      "stateMutability": "view",
      "type": "function"
    },
    {
      "constant": false,
      "inputs": [
        {
          "name": "_newContractAddress",
          "type": "address"
        }
      ],
      "name": "setNewContractAddress",
      "outputs": [],
      "payable": false,
      "stateMutability": "nonpayable",
      "type": "function"
    }
  ],
  "bytecode": "0x60806040523480156200001157600080fd5b50604051606080620056cf83398101806040528101908080519060200190929190805190602001909291908051906020019092919050505033600260006101000a81548173ffffffffffffffffffffffffffffffffffffffff021916908373ffffffffffffffffffffffffffffffffffffffff160217905550600260009054906101000a900473ffffffffffffffffffffffffffffffffffffffff16600360006101000a81548173ffffffffffffffffffffffffffffffffffffffff021916908373ffffffffffffffffffffffffffffffffffffffff16021790555060008081905550600060018190555062000123633b9aca00826200023864010000000002620052fb179091906401000000009004565b60078190555081600681905550620001538342620002836401000000000262005081179091906401000000009004565b60048190555060c060405190810160405280600081526020016000815260200160008152602001600081526020016020604051908101604052806000815250815260200160006004811115620001a557fe5b8152506008600080815260200190815260200160002060008201518160000155602082015181600101556040820151816002015560608201518160030155608082015181600401908051906020019062000201929190620002a3565b5060a08201518160050160006101000a81548160ff021916908360048111156200022757fe5b021790555090505050505062000352565b60008060008414806200024b5750600083145b156200025b57600091506200027c565b82840290508284828115156200026d57fe5b041415156200027857fe5b8091505b5092915050565b6000808284019050828482031415156200029957fe5b8091505092915050565b828054600181600116156101000203166002900490600052602060002090601f016020900481019282601f10620002e657805160ff191683800117855562000317565b8280016001018555821562000317579182015b8281111562000316578251825591602001919060010190620002f9565b5b5090506200032691906200032a565b5090565b6200034f91905b808211156200034b57600081600090555060010162000331565b5090565b90565b61536d80620003626000396000f30060806040526004361061015f576000357c0100000000000000000000000000000000000000000000000000000000900463ffffffff1680630f25e8c614610164578063122b14791461018f578063155dd5ee146101ba57806319d3116c146101da5780632f13b60c1461022057806338c4a5e71461024f5780633aefa6601461029e5780633c2cb07b146102f55780634b06a8021461032057806353cfc84d1461036f578063615f248c146103b457806365e91d2e146103e15780636af04a571461055a57806375f12b21146105b157806377ca8117146105e05780638da5cb5b146107485780638fc7602c1461079f5780639a24ffb3146107cc578063a814001f146107e3578063b0191b8f1461080e578063b6edaeac1461083b578063bad7a06114610866578063c2fbf6dd14610928578063e2cfdb4014610955578063e5ad18ee14610997578063e5e5dff1146109c2578063f3022de8146109ef575b600080fd5b34801561017057600080fd5b50610179610a32565b6040518082815260200191505060405180910390f35b34801561019b57600080fd5b506101a4610a38565b6040518082815260200191505060405180910390f35b6101d860048036038101908080359060200190929190505050610a7f565b005b61021e600480360381019080803590602001908201803590602001919091929391929390803590602001908201803590602001919091929391929390505050610c60565b005b34801561022c57600080fd5b50610235611005565b604051808215151515815260200191505060405180910390f35b34801561025b57600080fd5b5061029c600480360381019080803590602001909291908035906020019092919080359060200190820180359060200191909192939192939050505061101f565b005b3480156102aa57600080fd5b506102b3611853565b604051808273ffffffffffffffffffffffffffffffffffffffff1673ffffffffffffffffffffffffffffffffffffffff16815260200191505060405180910390f35b34801561030157600080fd5b5061030a611879565b6040518082815260200191505060405180910390f35b34801561032c57600080fd5b5061036d600480360381019080803590602001909291908035906020019092919080359060200190820180359060200191909192939192939050505061187f565b005b34801561037b57600080fd5b506103b2600480360381019080803590602001909291908035906020019082018035906020019190919293919293905050506121b9565b005b3480156103c057600080fd5b506103df600480360381019080803590602001909291905050506126df565b005b3480156103ed57600080fd5b506104166004803603810190808035906020019092919080359060200190929190505050612a4b565b60405180806020018873ffffffffffffffffffffffffffffffffffffffff1673ffffffffffffffffffffffffffffffffffffffff1681526020018060200187600281111561046057fe5b60ff16815260200186815260200185815260200184815260200183810383528a818151815260200191508051906020019080838360005b838110156104b2578082015181840152602081019050610497565b50505050905090810190601f1680156104df5780820380516001836020036101000a031916815260200191505b50838103825288818151815260200191508051906020019080838360005b838110156105185780820151818401526020810190506104fd565b50505050905090810190601f1680156105455780820380516001836020036101000a031916815260200191505b50995050505050505050505060405180910390f35b34801561056657600080fd5b5061056f612cc2565b604051808273ffffffffffffffffffffffffffffffffffffffff1673ffffffffffffffffffffffffffffffffffffffff16815260200191505060405180910390f35b3480156105bd57600080fd5b506105c6612ce8565b604051808215151515815260200191505060405180910390f35b3480156105ec57600080fd5b5061060b60048036038101908080359060200190929190505050612cfb565b6040518080602001806020018981526020018873ffffffffffffffffffffffffffffffffffffffff1673ffffffffffffffffffffffffffffffffffffffff16815260200187815260200186815260200185815260200184815260200183810383528b818151815260200191508051906020019080838360005b8381101561069f578082015181840152602081019050610684565b50505050905090810190601f1680156106cc5780820380516001836020036101000a031916815260200191505b5083810382528a818151815260200191508051906020019080838360005b838110156107055780820151818401526020810190506106ea565b50505050905090810190601f1680156107325780820380516001836020036101000a031916815260200191505b509a505050505050505050505060405180910390f35b34801561075457600080fd5b5061075d612f7a565b604051808273ffffffffffffffffffffffffffffffffffffffff1673ffffffffffffffffffffffffffffffffffffffff16815260200191505060405180910390f35b3480156107ab57600080fd5b506107ca60048036038101908080359060200190929190505050612fa0565b005b3480156107d857600080fd5b506107e16133bd565b005b3480156107ef57600080fd5b506107f86134f1565b6040518082815260200191505060405180910390f35b34801561081a57600080fd5b50610839600480360381019080803590602001909291905050506134f7565b005b34801561084757600080fd5b506108506139b8565b6040518082815260200191505060405180910390f35b34801561087257600080fd5b50610891600480360381019080803590602001909291905050506139be565b6040518086815260200185815260200184815260200180602001838152602001828103825284818151815260200191508051906020019080838360005b838110156108e95780820151818401526020810190506108ce565b50505050905090810190601f1680156109165780820380516001836020036101000a031916815260200191505b50965050505050505060405180910390f35b34801561093457600080fd5b5061095360048036038101908080359060200190929190505050613b1f565b005b6109956004803603810190808035906020019092919080359060200190929190803590602001908201803590602001919091929391929390505050613e82565b005b3480156109a357600080fd5b506109ac614643565b6040518082815260200191505060405180910390f35b3480156109ce57600080fd5b506109ed60048036038101908080359060200190929190505050614649565b005b3480156109fb57600080fd5b50610a30600480360381019080803573ffffffffffffffffffffffffffffffffffffffff169060200190929190505050614dee565b005b60075481565b6000600a60003373ffffffffffffffffffffffffffffffffffffffff1673ffffffffffffffffffffffffffffffffffffffff16815260200190815260200160002054905090565b8080600a60003373ffffffffffffffffffffffffffffffffffffffff1673ffffffffffffffffffffffffffffffffffffffff1681526020019081526020016000205410151515610b5d576040517f08c379a00000000000000000000000000000000000000000000000000000000081526004018080602001828103825260238152602001807f4e6f2073756666696369656e742066756e647320746f2062652077697468647281526020017f61776e000000000000000000000000000000000000000000000000000000000081525060400191505060405180910390fd5b81600a60003373ffffffffffffffffffffffffffffffffffffffff1673ffffffffffffffffffffffffffffffffffffffff168152602001908152602001600020600082825403925050819055503373ffffffffffffffffffffffffffffffffffffffff166108fc839081150290604051600060405180830381858888f19350505050158015610bf0573d6000803e3d6000fd5b507f70b3b7db21bdb2dba6dc265c63c2be9d573a8d327104a95137869fa400b9fdd13383604051808373ffffffffffffffffffffffffffffffffffffffff1673ffffffffffffffffffffffffffffffffffffffff1681526020018281526020019250505060405180910390a15050565b600360149054906101000a900460ff16158015610c825750610c80611005565b155b1515610d1c576040517f08c379a000000000000000000000000000000000000000000000000000000000815260040180806020018281038252603f8152602001807f54686520636f6e74726163742069732073746f70706564206f7220657870697281526020017f65642c20746869732066756e6374696f6e2063616e277420626520757365640081525060400191505060405180910390fd5b6007543410151515610dbc576040517f08c379a00000000000000000000000000000000000000000000000000000000081526004018080602001828103825260328152602001807f54686520646973707574652073686f756c642062652066756e6465642077697481526020017f6820746865206469737075746520636f7374000000000000000000000000000081525060400191505060405180910390fd5b61012060405190810160405280610ddf600160005461508190919063ffffffff16565b815260200142815260200185858080601f016020809104026020016040519081016040528093929190818152602001838380828437820191505050505050815260200183838080601f0160208091040260200160405190810160405280939291908181526020018383808284378201915050505050508152602001610e6f600754346150a090919063ffffffff16565b81526020013373ffffffffffffffffffffffffffffffffffffffff16815260200160006003811115610e9d57fe5b815260200160008152602001600081525060096000610ec8600160005461508190919063ffffffff16565b815260200190815260200160002060008201518160000155602082015181600101556040820151816002019080519060200190610f069291906150bf565b506060820151816003019080519060200190610f239291906150bf565b506080820151816004015560a08201518160050160006101000a81548173ffffffffffffffffffffffffffffffffffffffff021916908373ffffffffffffffffffffffffffffffffffffffff16021790555060c08201518160050160146101000a81548160ff02191690836003811115610f9957fe5b021790555060e082015181600701556101008201518160080155905050600160008082825401925050819055507f69d1cf57b9cfe5b3ea3c72cc2f04618d50abb239088b57f52b764a59ede717856000546040518082815260200191505060405180910390a150505050565b6000600454421161101757600061101a565b60015b905090565b600080600360149054906101000a900460ff161580156110445750611042611005565b155b15156110de576040517f08c379a000000000000000000000000000000000000000000000000000000000815260040180806020018281038252603f8152602001807f54686520636f6e74726163742069732073746f70706564206f7220657870697281526020017f65642c20746869732066756e6374696f6e2063616e277420626520757365640081525060400191505060405180910390fd5b85600081141580156110f257508060005410155b1515611166576040517f08c379a00000000000000000000000000000000000000000000000000000000081526004018080602001828103825260208152602001807f426f756e7479206964656e74696669657220646f6573206e6f7420657869737481525060200191505060405180910390fd5b86866000811415801561118f575080600960008481526020019081526020016000206007015410155b1515611229576040517f08c379a000000000000000000000000000000000000000000000000000000000815260040180806020018281038252602c8152602001807f5468652070726f706f73616c206964656e74696669657220676976656e20646f81526020017f6573206e6f74206578697374000000000000000000000000000000000000000081525060400191505060405180910390fd5b886009600082815260200190815260200160002060050160009054906101000a900473ffffffffffffffffffffffffffffffffffffffff1673ffffffffffffffffffffffffffffffffffffffff163373ffffffffffffffffffffffffffffffffffffffff16141515611329576040517f08c379a00000000000000000000000000000000000000000000000000000000081526004018080602001828103825260228152602001807f4f6e6c792074686520626f756e747920706f737465722063616e20646f20746881526020017f697300000000000000000000000000000000000000000000000000000000000081525060400191505060405180910390fd5b896000600381111561133757fe5b6009600083815260200190815260200160002060050160149054906101000a900460ff16600381111561136657fe5b1415156113db576040517f08c379a00000000000000000000000000000000000000000000000000000000081526004018080602001828103825260138152602001807f426f756e7479206d757374206265206f70656e0000000000000000000000000081525060200191505060405180910390fd5b8a8a6114076001600960008581526020019081526020016000206008015461508190919063ffffffff16565b811415156114a3576040517f08c379a000000000000000000000000000000000000000000000000000000000815260040180806020018281038252602b8152602001807f546869732063616e206f6e6c792062652072756e206f6e20746865206c61746581526020017f73742070726f706f73616c00000000000000000000000000000000000000000081525060400191505060405180910390fd5b8c426114fa600654600960008581526020019081526020016000206006016000600960008781526020019081526020016000206008015481526020019081526020016000206005015461508190919063ffffffff16565b10801561158157506001600481111561150f57fe5b600860006009600085815260200190815260200160002060060160006009600087815260200190815260200160002060080154815260200190815260200160002060070154815260200190815260200160002060050160009054906101000a900460ff16600481111561157e57fe5b14155b806116e85750426115dd600654600960008581526020019081526020016000206006016000600960008781526020019081526020016000206008015481526020019081526020016000206005015461508190919063ffffffff16565b1180156116635750600260048111156115f257fe5b600860006009600085815260200190815260200160002060060160006009600087815260200190815260200160002060080154815260200190815260200160002060070154815260200190815260200160002060050160009054906101000a900460ff16600481111561166157fe5b145b806116e757506003600481111561167657fe5b600860006009600085815260200190815260200160002060060160006009600087815260200190815260200160002060080154815260200190815260200160002060070154815260200190815260200160002060050160009054906101000a900460ff1660048111156116e557fe5b145b5b1515611782576040517f08c379a000000000000000000000000000000000000000000000000000000000815260040180806020018281038252602c8152602001807f5468652070726576696f75732070726f706f73616c2063616e207374696c6c2081526020017f62652064697370757465642e000000000000000000000000000000000000000081525060400191505060405180910390fd5b600960008f815260200190815260200160002099508960060160008e815260200190815260200160002098508b8b8a60040191906117c192919061513f565b5042896005018190555060018960060160006101000a81548160ff021916908360028111156117ec57fe5b021790555060018a600801600082825401925050819055507f0a12463c283964f5c0a9cc9d0906d50a48b0ad0bf615fb0aaa3aa496180c91fd8e8e604051808381526020018281526020019250505060405180910390a15050505050505050505050505050565b600360009054906101000a900473ffffffffffffffffffffffffffffffffffffffff1681565b60005481565b600080600080600360149054906101000a900460ff161580156118a757506118a5611005565b155b1515611941576040517f08c379a000000000000000000000000000000000000000000000000000000000815260040180806020018281038252603f8152602001807f54686520636f6e74726163742069732073746f70706564206f7220657870697281526020017f65642c20746869732066756e6374696f6e2063616e277420626520757365640081525060400191505060405180910390fd5b876000811415801561195557508060005410155b15156119c9576040517f08c379a00000000000000000000000000000000000000000000000000000000081526004018080602001828103825260208152602001807f426f756e7479206964656e74696669657220646f6573206e6f7420657869737481525060200191505060405180910390fd5b8888600081141580156119f2575080600960008481526020019081526020016000206007015410155b1515611a8c576040517f08c379a000000000000000000000000000000000000000000000000000000000815260040180806020018281038252602c8152602001807f5468652070726f706f73616c206964656e74696669657220676976656e20646f81526020017f6573206e6f74206578697374000000000000000000000000000000000000000081525060400191505060405180910390fd5b8a6009600082815260200190815260200160002060050160009054906101000a900473ffffffffffffffffffffffffffffffffffffffff1673ffffffffffffffffffffffffffffffffffffffff163373ffffffffffffffffffffffffffffffffffffffff16141515611b8c576040517f08c379a00000000000000000000000000000000000000000000000000000000081526004018080602001828103825260228152602001807f4f6e6c792074686520626f756e747920706f737465722063616e20646f20746881526020017f697300000000000000000000000000000000000000000000000000000000000081525060400191505060405180910390fd5b8b60006003811115611b9a57fe5b6009600083815260200190815260200160002060050160149054906101000a900460ff166003811115611bc957fe5b141515611c3e576040517f08c379a00000000000000000000000000000000000000000000000000000000081526004018080602001828103825260138152602001807f426f756e7479206d757374206265206f70656e0000000000000000000000000081525060200191505060405180910390fd5b8c8c611c6a6001600960008581526020019081526020016000206008015461508190919063ffffffff16565b81141515611d06576040517f08c379a000000000000000000000000000000000000000000000000000000000815260040180806020018281038252602b8152602001807f546869732063616e206f6e6c792062652072756e206f6e20746865206c61746581526020017f73742070726f706f73616c00000000000000000000000000000000000000000081525060400191505060405180910390fd5b8e42611d5d600654600960008581526020019081526020016000206006016000600960008781526020019081526020016000206008015481526020019081526020016000206005015461508190919063ffffffff16565b108015611de4575060016004811115611d7257fe5b600860006009600085815260200190815260200160002060060160006009600087815260200190815260200160002060080154815260200190815260200160002060070154815260200190815260200160002060050160009054906101000a900460ff166004811115611de157fe5b14155b80611f4b575042611e40600654600960008581526020019081526020016000206006016000600960008781526020019081526020016000206008015481526020019081526020016000206005015461508190919063ffffffff16565b118015611ec6575060026004811115611e5557fe5b600860006009600085815260200190815260200160002060060160006009600087815260200190815260200160002060080154815260200190815260200160002060070154815260200190815260200160002060050160009054906101000a900460ff166004811115611ec457fe5b145b80611f4a575060036004811115611ed957fe5b600860006009600085815260200190815260200160002060060160006009600087815260200190815260200160002060080154815260200190815260200160002060070154815260200190815260200160002060050160009054906101000a900460ff166004811115611f4857fe5b145b5b1515611fe5576040517f08c379a000000000000000000000000000000000000000000000000000000000815260040180806020018281038252602c8152602001807f5468652070726576696f75732070726f706f73616c2063616e207374696c6c2081526020017f62652064697370757465642e000000000000000000000000000000000000000081525060400191505060405180910390fd5b8f9b508e9a50600960008d815260200190815260200160002099508960060160008c815260200190815260200160002098508d8d8a600401919061202a92919061513f565b5042896005018190555060028960060160006101000a81548160ff0219169083600281111561205557fe5b021790555060028a60050160146101000a81548160ff0219169083600381111561207b57fe5b02179055508960040154600a60008b60030160009054906101000a900473ffffffffffffffffffffffffffffffffffffffff1673ffffffffffffffffffffffffffffffffffffffff1673ffffffffffffffffffffffffffffffffffffffff16815260200190815260200160002060008282540192505081905550600754600a60008c60050160009054906101000a900473ffffffffffffffffffffffffffffffffffffffff1673ffffffffffffffffffffffffffffffffffffffff1673ffffffffffffffffffffffffffffffffffffffff168152602001908152602001600020600082825401925050819055507fb8f2f929003b0df838feff060d1b72141e78eac12aad85e8d3edc1635f5b74518c8c604051808381526020018281526020019250505060405180910390a150505050505050505050505050505050565b6000600360149054906101000a900460ff161580156121dd57506121db611005565b155b1515612277576040517f08c379a000000000000000000000000000000000000000000000000000000000815260040180806020018281038252603f8152602001807f54686520636f6e74726163742069732073746f70706564206f7220657870697281526020017f65642c20746869732066756e6374696f6e2063616e277420626520757365640081525060400191505060405180910390fd5b836000811415801561228b57508060005410155b15156122ff576040517f08c379a00000000000000000000000000000000000000000000000000000000081526004018080602001828103825260208152602001807f426f756e7479206964656e74696669657220646f6573206e6f7420657869737481525060200191505060405180910390fd5b846009600082815260200190815260200160002060050160009054906101000a900473ffffffffffffffffffffffffffffffffffffffff1673ffffffffffffffffffffffffffffffffffffffff163373ffffffffffffffffffffffffffffffffffffffff1614151515612400576040517f08c379a00000000000000000000000000000000000000000000000000000000081526004018080602001828103825260248152602001807f4f6e6c792061206e6f6e20626f756e747920706f737465722063616e20646f2081526020017f746869730000000000000000000000000000000000000000000000000000000081525060400191505060405180910390fd5b856000600381111561240e57fe5b6009600083815260200190815260200160002060050160149054906101000a900460ff16600381111561243d57fe5b1415156124b2576040517f08c379a00000000000000000000000000000000000000000000000000000000081526004018080602001828103825260138152602001807f426f756e7479206d757374206265206f70656e0000000000000000000000000081525060200191505060405180910390fd5b600960008881526020019081526020016000209350610100604051908101604052806124ec6001876007015461508190919063ffffffff16565b815260200142815260200187878080601f01602080910402602001604051908101604052809392919081815260200183838082843782019150505050505081526020013373ffffffffffffffffffffffffffffffffffffffff16815260200160206040519081016040528060008152508152602001600081526020016000600281111561257557fe5b8152602001600081525084600601600061259d6001886007015461508190919063ffffffff16565b8152602001908152602001600020600082015181600001556020820151816001015560408201518160020190805190602001906125db9291906150bf565b5060608201518160030160006101000a81548173ffffffffffffffffffffffffffffffffffffffff021916908373ffffffffffffffffffffffffffffffffffffffff160217905550608082015181600401908051906020019061263f9291906150bf565b5060a0820151816005015560c08201518160060160006101000a81548160ff0219169083600281111561266e57fe5b021790555060e08201518160070155905050600184600701600082825401925050819055507f3685551657f54db5c359912b431ddb2fc106cefc4a2526672aa7295fdc34cb26878560070154604051808381526020018281526020019250505060405180910390a150505050505050565b6000806000833373ffffffffffffffffffffffffffffffffffffffff16600960006008600085815260200190815260200160002060010154815260200190815260200160002060060160006008600085815260200190815260200160002060020154815260200190815260200160002060030160009054906101000a900473ffffffffffffffffffffffffffffffffffffffff1673ffffffffffffffffffffffffffffffffffffffff16141515612824576040517f08c379a00000000000000000000000000000000000000000000000000000000081526004018080602001828103825260248152602001807f4f6e6c792074686520646973707574657220706f737465722063616e20646f2081526020017f746869730000000000000000000000000000000000000000000000000000000081525060400191505060405180910390fd5b846001600481111561283257fe5b6008600083815260200190815260200160002060050160009054906101000a900460ff16600481111561286157fe5b1415156128fc576040517f08c379a00000000000000000000000000000000000000000000000000000000081526004018080602001828103825260288152602001807f546869732063616e206f6e6c792062652075736564206f6e20616e206f70656e81526020017f206469737075746500000000000000000000000000000000000000000000000081525060400191505060405180910390fd5b600860008781526020019081526020016000206001015494506008600087815260200190815260200160002060020154935060096000868152602001908152602001600020600601600085815260200190815260200160002092506000836007018190555060046008600088815260200190815260200160002060050160006101000a81548160ff0219169083600481111561299457fe5b0217905550600754600a60008560030160009054906101000a900473ffffffffffffffffffffffffffffffffffffffff1673ffffffffffffffffffffffffffffffffffffffff1673ffffffffffffffffffffffffffffffffffffffff168152602001908152602001600020600082825401925050819055507fa8572e2e52f871d7dc1ec03e555d15c3acbfb5a6685f8945b1309e99bfe7bd07866040518082815260200191505060405180910390a1505050505050565b606060006060600080600080612a5f6151bf565b600960008b815260200190815260200160002060060160008a815260200190815260200160002061010060405190810160405290816000820154815260200160018201548152602001600282018054600181600116156101000203166002900480601f016020809104026020016040519081016040528092919081815260200182805460018160011615610100020316600290048015612b405780601f10612b1557610100808354040283529160200191612b40565b820191906000526020600020905b815481529060010190602001808311612b2357829003601f168201915b505050505081526020016003820160009054906101000a900473ffffffffffffffffffffffffffffffffffffffff1673ffffffffffffffffffffffffffffffffffffffff1673ffffffffffffffffffffffffffffffffffffffff168152602001600482018054600181600116156101000203166002900480601f016020809104026020016040519081016040528092919081815260200182805460018160011615610100020316600290048015612c385780601f10612c0d57610100808354040283529160200191612c38565b820191906000526020600020905b815481529060010190602001808311612c1b57829003601f168201915b50505050508152602001600582015481526020016006820160009054906101000a900460ff166002811115612c6957fe5b6002811115612c7457fe5b8152602001600782015481525050905080604001519750806060015196508060c00151945080608001519550806020015192508060a0015193508060e0015191505092959891949750929550565b600560009054906101000a900473ffffffffffffffffffffffffffffffffffffffff1681565b600360149054906101000a900460ff1681565b606080600080600080600080612d0f615226565b600960008b815260200190815260200160002061012060405190810160405290816000820154815260200160018201548152602001600282018054600181600116156101000203166002900480601f016020809104026020016040519081016040528092919081815260200182805460018160011615610100020316600290048015612ddc5780601f10612db157610100808354040283529160200191612ddc565b820191906000526020600020905b815481529060010190602001808311612dbf57829003601f168201915b50505050508152602001600382018054600181600116156101000203166002900480601f016020809104026020016040519081016040528092919081815260200182805460018160011615610100020316600290048015612e7e5780601f10612e5357610100808354040283529160200191612e7e565b820191906000526020600020905b815481529060010190602001808311612e6157829003601f168201915b50505050508152602001600482015481526020016005820160009054906101000a900473ffffffffffffffffffffffffffffffffffffffff1673ffffffffffffffffffffffffffffffffffffffff1673ffffffffffffffffffffffffffffffffffffffff1681526020016005820160149054906101000a900460ff166003811115612f0557fe5b6003811115612f1057fe5b81526020016007820154815260200160088201548152505090508060400151985080606001519750806080015196508060a0015195508060c001516003811115612f5657fe5b94508060e00151935080610100015192508060200151915050919395975091939597565b600260009054906101000a900473ffffffffffffffffffffffffffffffffffffffff1681565b6000600360149054906101000a900460ff1680612fc15750612fc0611005565b5b1515613081576040517f08c379a00000000000000000000000000000000000000000000000000000000081526004018080602001828103825260438152602001807f54686520636f6e7472616374206973206e6f742073746f70706564206f72206581526020017f7870697265642c20746869732066756e6374696f6e2063616e2774206265207581526020017f736564000000000000000000000000000000000000000000000000000000000081525060600191505060405180910390fd5b816000811415801561309557508060005410155b1515613109576040517f08c379a00000000000000000000000000000000000000000000000000000000081526004018080602001828103825260208152602001807f426f756e7479206964656e74696669657220646f6573206e6f7420657869737481525060200191505060405180910390fd5b826000600381111561311757fe5b6009600083815260200190815260200160002060050160149054906101000a900460ff16600381111561314657fe5b1415156131bb576040517f08c379a00000000000000000000000000000000000000000000000000000000081526004018080602001828103825260138152602001807f426f756e7479206d757374206265206f70656e0000000000000000000000000081525060200191505060405180910390fd5b836009600082815260200190815260200160002060050160009054906101000a900473ffffffffffffffffffffffffffffffffffffffff1673ffffffffffffffffffffffffffffffffffffffff163373ffffffffffffffffffffffffffffffffffffffff161415156132bb576040517f08c379a00000000000000000000000000000000000000000000000000000000081526004018080602001828103825260228152602001807f4f6e6c792074686520626f756e747920706f737465722063616e20646f20746881526020017f697300000000000000000000000000000000000000000000000000000000000081525060400191505060405180910390fd5b60096000868152602001908152602001600020935060038460050160146101000a81548160ff021916908360038111156132f157fe5b021790555061330f600754856004015461508190919063ffffffff16565b600a60008660050160009054906101000a900473ffffffffffffffffffffffffffffffffffffffff1673ffffffffffffffffffffffffffffffffffffffff1673ffffffffffffffffffffffffffffffffffffffff168152602001908152602001600020600082825401925050819055507f82a4fef5aaabbc5fca16b1c71a5460307d86e7bfe288a46ea089341430789957856040518082815260200191505060405180910390a15050505050565b600260009054906101000a900473ffffffffffffffffffffffffffffffffffffffff1673ffffffffffffffffffffffffffffffffffffffff163373ffffffffffffffffffffffffffffffffffffffff161415156134a8576040517f08c379a00000000000000000000000000000000000000000000000000000000081526004018080602001828103825260238152602001807f4f6e6c792074686520636f6e7472616374206f776e65722063616e20646f207481526020017f686973000000000000000000000000000000000000000000000000000000000081525060400191505060405180910390fd5b6001600360146101000a81548160ff0219169083151502179055507fdfa7b7e5729509413311262c3ca19054ac8aad8db72ca3b8c189d376c38fd03060405160405180910390a1565b60045481565b6000806000806000600360149054906101000a900460ff16158015613521575061351f611005565b155b15156135bb576040517f08c379a000000000000000000000000000000000000000000000000000000000815260040180806020018281038252603f8152602001807f54686520636f6e74726163742069732073746f70706564206f7220657870697281526020017f65642c20746869732066756e6374696f6e2063616e277420626520757365640081525060400191505060405180910390fd5b600360009054906101000a900473ffffffffffffffffffffffffffffffffffffffff1673ffffffffffffffffffffffffffffffffffffffff163373ffffffffffffffffffffffffffffffffffffffff161415156136a6576040517f08c379a00000000000000000000000000000000000000000000000000000000081526004018080602001828103825260288152602001807f4f6e6c792074686520636f6e747261637420617262697472616765722063616e81526020017f20646f207468697300000000000000000000000000000000000000000000000081525060400191505060405180910390fd5b85600160048111156136b457fe5b6008600083815260200190815260200160002060050160009054906101000a900460ff1660048111156136e357fe5b14151561377e576040517f08c379a00000000000000000000000000000000000000000000000000000000081526004018080602001828103825260288152602001807f546869732063616e206f6e6c792062652075736564206f6e20616e206f70656e81526020017f206469737075746500000000000000000000000000000000000000000000000081525060400191505060405180910390fd5b6008600088815260200190815260200160002095508560010154945085600201549350600960008681526020019081526020016000209250826006016000858152602001908152602001600020915060038660050160006101000a81548160ff021916908360048111156137ee57fe5b021790555060028260060160006101000a81548160ff0219169083600281111561381457fe5b021790555060028360050160146101000a81548160ff0219169083600381111561383a57fe5b0217905550613858600754846004015461508190919063ffffffff16565b600a60008460030160009054906101000a900473ffffffffffffffffffffffffffffffffffffffff1673ffffffffffffffffffffffffffffffffffffffff1673ffffffffffffffffffffffffffffffffffffffff16815260200190815260200160002060008282540192505081905550600754600a6000600260009054906101000a900473ffffffffffffffffffffffffffffffffffffffff1673ffffffffffffffffffffffffffffffffffffffff1673ffffffffffffffffffffffffffffffffffffffff168152602001908152602001600020600082825401925050819055507fb8f2f929003b0df838feff060d1b72141e78eac12aad85e8d3edc1635f5b74518585604051808381526020018281526020019250505060405180910390a17f9df033c526fd953411b93afd5cd8dbb09f06ea098ed77b17056c303c0be8ee89876040518082815260200191505060405180910390a150505050505050565b60015481565b6000806000606060006139cf615294565b6008600088815260200190815260200160002060c0604051908101604052908160008201548152602001600182015481526020016002820154815260200160038201548152602001600482018054600181600116156101000203166002900480601f016020809104026020016040519081016040528092919081815260200182805460018160011615610100020316600290048015613aaf5780601f10613a8457610100808354040283529160200191613aaf565b820191906000526020600020905b815481529060010190602001808311613a9257829003601f168201915b505050505081526020016005820160009054906101000a900460ff166004811115613ad657fe5b6004811115613ae157fe5b815250509050806020015195508060400151945080606001519350806080015192508060a001516004811115613b1357fe5b91505091939590929450565b600360149054906101000a900460ff16158015613b415750613b3f611005565b155b1515613bdb576040517f08c379a000000000000000000000000000000000000000000000000000000000815260040180806020018281038252603f8152602001807f54686520636f6e74726163742069732073746f70706564206f7220657870697281526020017f65642c20746869732066756e6374696f6e2063616e277420626520757365640081525060400191505060405180910390fd5b600360009054906101000a900473ffffffffffffffffffffffffffffffffffffffff1673ffffffffffffffffffffffffffffffffffffffff163373ffffffffffffffffffffffffffffffffffffffff16141515613cc6576040517f08c379a00000000000000000000000000000000000000000000000000000000081526004018080602001828103825260288152602001807f4f6e6c792074686520636f6e747261637420617262697472616765722063616e81526020017f20646f207468697300000000000000000000000000000000000000000000000081525060400191505060405180910390fd5b8060016004811115613cd457fe5b6008600083815260200190815260200160002060050160009054906101000a900460ff166004811115613d0357fe5b141515613d9e576040517f08c379a00000000000000000000000000000000000000000000000000000000081526004018080602001828103825260288152602001807f546869732063616e206f6e6c792062652075736564206f6e20616e206f70656e81526020017f206469737075746500000000000000000000000000000000000000000000000081525060400191505060405180910390fd5b60026008600084815260200190815260200160002060050160006101000a81548160ff02191690836004811115613dd157fe5b0217905550600754600a6000600260009054906101000a900473ffffffffffffffffffffffffffffffffffffffff1673ffffffffffffffffffffffffffffffffffffffff1673ffffffffffffffffffffffffffffffffffffffff168152602001908152602001600020600082825401925050819055507fb80b6be174b4d0cd0cb1a667b752f8418f4aa05a40cb5a3a87ffa2884af72637826040518082815260200191505060405180910390a15050565b600360149054906101000a900460ff16158015613ea45750613ea2611005565b155b1515613f3e576040517f08c379a000000000000000000000000000000000000000000000000000000000815260040180806020018281038252603f8152602001807f54686520636f6e74726163742069732073746f70706564206f7220657870697281526020017f65642c20746869732066756e6374696f6e2063616e277420626520757365640081525060400191505060405180910390fd5b8360008114158015613f5257508060005410155b1515613fc6576040517f08c379a00000000000000000000000000000000000000000000000000000000081526004018080602001828103825260208152602001807f426f756e7479206964656e74696669657220646f6573206e6f7420657869737481525060200191505060405180910390fd5b848460008114158015613fef575080600960008481526020019081526020016000206007015410155b1515614089576040517f08c379a000000000000000000000000000000000000000000000000000000000815260040180806020018281038252602c8152602001807f5468652070726f706f73616c206964656e74696669657220676976656e20646f81526020017f6573206e6f74206578697374000000000000000000000000000000000000000081525060400191505060405180910390fd5b868660096000838152602001908152602001600020600601600082815260200190815260200160002060030160009054906101000a900473ffffffffffffffffffffffffffffffffffffffff1673ffffffffffffffffffffffffffffffffffffffff163373ffffffffffffffffffffffffffffffffffffffff1614151561419e576040517f08c379a00000000000000000000000000000000000000000000000000000000081526004018080602001828103825260248152602001807f4f6e6c79207468652070726f706f73616c20706f737465722063616e20646f2081526020017f746869730000000000000000000000000000000000000000000000000000000081525060400191505060405180910390fd5b88600060038111156141ac57fe5b6009600083815260200190815260200160002060050160149054906101000a900460ff1660038111156141db57fe5b141515614250576040517f08c379a00000000000000000000000000000000000000000000000000000000081526004018080602001828103825260138152602001807f426f756e7479206d757374206265206f70656e0000000000000000000000000081525060200191505060405180910390fd5b89896001600281111561425f57fe5b60096000848152602001908152602001600020600601600083815260200190815260200160002060060160009054906101000a900460ff1660028111156142a257fe5b1480156142ec5750426142ea6006546009600086815260200190815260200160002060060160008581526020019081526020016000206005015461508190919063ffffffff16565b115b80156143225750600060096000848152602001908152602001600020600601600083815260200190815260200160002060070154145b15156143e2576040517f08c379a000000000000000000000000000000000000000000000000000000000815260040180806020018281038252605c8152602001807f5468652070726f706f73616c20776173206e6f742072656a65637465642c207481526020017f6865206469737075746520706572696f64206973207061737365642c206f722081526020017f6120646973707574652077617320616c726561647920706f737465640000000081525060600191505060405180910390fd5b60075434141515614481576040517f08c379a00000000000000000000000000000000000000000000000000000000081526004018080602001828103825260328152602001807f54686520646973707574652073686f756c642062652066756e6465642077697481526020017f6820746865206469737075746520636f7374000000000000000000000000000081525060400191505060405180910390fd5b60c0604051908101604052806144a26001805461508190919063ffffffff16565b81526020018d81526020018c81526020014281526020018b8b8080601f0160208091040260200160405190810160405280939291908181526020018383808284378201915050505050508152602001600160048111156144fe57fe5b8152506008600061451a6001805461508190919063ffffffff16565b815260200190815260200160002060008201518160000155602082015181600101556040820151816002015560608201518160030155608082015181600401908051906020019061456c9291906150bf565b5060a08201518160050160006101000a81548160ff0219169083600481111561459157fe5b02179055509050506145ae6001805461508190919063ffffffff16565b600960008e815260200190815260200160002060060160008d815260200190815260200160002060070181905550600180600082825401925050819055507fd739c8b7fe870f381c5442416ff79d9f44c3e1d54a16ce39fc0fbe8206c4a6e86001548d8d60405180848152602001838152602001828152602001935050505060405180910390a1505050505050505050505050565b60065481565b6000600360149054906101000a900460ff1615801561466d575061466b611005565b155b1515614707576040517f08c379a000000000000000000000000000000000000000000000000000000000815260040180806020018281038252603f8152602001807f54686520636f6e74726163742069732073746f70706564206f7220657870697281526020017f65642c20746869732066756e6374696f6e2063616e277420626520757365640081525060400191505060405180910390fd5b816000811415801561471b57508060005410155b151561478f576040517f08c379a00000000000000000000000000000000000000000000000000000000081526004018080602001828103825260208152602001807f426f756e7479206964656e74696669657220646f6573206e6f7420657869737481525060200191505060405180910390fd5b826009600082815260200190815260200160002060050160009054906101000a900473ffffffffffffffffffffffffffffffffffffffff1673ffffffffffffffffffffffffffffffffffffffff163373ffffffffffffffffffffffffffffffffffffffff1614151561488f576040517f08c379a00000000000000000000000000000000000000000000000000000000081526004018080602001828103825260228152602001807f4f6e6c792074686520626f756e747920706f737465722063616e20646f20746881526020017f697300000000000000000000000000000000000000000000000000000000000081525060400191505060405180910390fd5b836000600381111561489d57fe5b6009600083815260200190815260200160002060050160149054906101000a900460ff1660038111156148cc57fe5b141515614941576040517f08c379a00000000000000000000000000000000000000000000000000000000081526004018080602001828103825260138152602001807f426f756e7479206d757374206265206f70656e0000000000000000000000000081525060200191505060405180910390fd5b8460096000828152602001908152602001600020600801546009600083815260200190815260200160002060070154141515614a0b576040517f08c379a000000000000000000000000000000000000000000000000000000000815260040180806020018281038252602b8152602001807f5468657265206973206174206c65617374206f6e65206e6f742072657669657781526020017f65642070726f706f73616c00000000000000000000000000000000000000000081525060400191505060405180910390fd5b8542614a62600654600960008581526020019081526020016000206006016000600960008781526020019081526020016000206008015481526020019081526020016000206005015461508190919063ffffffff16565b108015614ae9575060016004811115614a7757fe5b600860006009600085815260200190815260200160002060060160006009600087815260200190815260200160002060080154815260200190815260200160002060070154815260200190815260200160002060050160009054906101000a900460ff166004811115614ae657fe5b14155b80614c50575042614b45600654600960008581526020019081526020016000206006016000600960008781526020019081526020016000206008015481526020019081526020016000206005015461508190919063ffffffff16565b118015614bcb575060026004811115614b5a57fe5b600860006009600085815260200190815260200160002060060160006009600087815260200190815260200160002060080154815260200190815260200160002060070154815260200190815260200160002060050160009054906101000a900460ff166004811115614bc957fe5b145b80614c4f575060036004811115614bde57fe5b600860006009600085815260200190815260200160002060060160006009600087815260200190815260200160002060080154815260200190815260200160002060070154815260200190815260200160002060050160009054906101000a900460ff166004811115614c4d57fe5b145b5b1515614cea576040517f08c379a000000000000000000000000000000000000000000000000000000000815260040180806020018281038252602c8152602001807f5468652070726576696f75732070726f706f73616c2063616e207374696c6c2081526020017f62652064697370757465642e000000000000000000000000000000000000000081525060400191505060405180910390fd5b60096000888152602001908152602001600020955060018660050160146101000a81548160ff02191690836003811115614d2057fe5b0217905550614d3e600754876004015461508190919063ffffffff16565b600a60008860050160009054906101000a900473ffffffffffffffffffffffffffffffffffffffff1673ffffffffffffffffffffffffffffffffffffffff1673ffffffffffffffffffffffffffffffffffffffff168152602001908152602001600020600082825401925050819055507fbca64d895859b7839699ffaec0738af173426553c1653e7daf7c224fbfd1138b876040518082815260200191505060405180910390a150505050505050565b600260009054906101000a900473ffffffffffffffffffffffffffffffffffffffff1673ffffffffffffffffffffffffffffffffffffffff163373ffffffffffffffffffffffffffffffffffffffff16141515614ed9576040517f08c379a00000000000000000000000000000000000000000000000000000000081526004018080602001828103825260238152602001807f4f6e6c792074686520636f6e7472616374206f776e65722063616e20646f207481526020017f686973000000000000000000000000000000000000000000000000000000000081525060400191505060405180910390fd5b600360149054906101000a900460ff1680614ef85750614ef7611005565b5b1515614fb8576040517f08c379a00000000000000000000000000000000000000000000000000000000081526004018080602001828103825260438152602001807f54686520636f6e7472616374206973206e6f742073746f70706564206f72206581526020017f7870697265642c20746869732066756e6374696f6e2063616e2774206265207581526020017f736564000000000000000000000000000000000000000000000000000000000081525060600191505060405180910390fd5b80600560006101000a81548173ffffffffffffffffffffffffffffffffffffffff021916908373ffffffffffffffffffffffffffffffffffffffff1602179055507f05a73432827fb5ffe6f7288b570e43691b94ae2a98f8c22b6fe0675e124ee1fa600560009054906101000a900473ffffffffffffffffffffffffffffffffffffffff16604051808273ffffffffffffffffffffffffffffffffffffffff1673ffffffffffffffffffffffffffffffffffffffff16815260200191505060405180910390a150565b60008082840190508284820314151561509657fe5b8091505092915050565b6000808284039050838382011415156150b557fe5b8091505092915050565b828054600181600116156101000203166002900490600052602060002090601f016020900481019282601f1061510057805160ff191683800117855561512e565b8280016001018555821561512e579182015b8281111561512d578251825591602001919060010190615112565b5b50905061513b91906152d6565b5090565b828054600181600116156101000203166002900490600052602060002090601f016020900481019282601f1061518057803560ff19168380011785556151ae565b828001600101855582156151ae579182015b828111156151ad578235825591602001919060010190615192565b5b5090506151bb91906152d6565b5090565b61010060405190810160405280600081526020016000815260200160608152602001600073ffffffffffffffffffffffffffffffffffffffff16815260200160608152602001600081526020016000600281111561521957fe5b8152602001600081525090565b610120604051908101604052806000815260200160008152602001606081526020016060815260200160008152602001600073ffffffffffffffffffffffffffffffffffffffff1681526020016000600381111561528057fe5b815260200160008152602001600081525090565b60c0604051908101604052806000815260200160008152602001600081526020016000815260200160608152602001600060048111156152d057fe5b81525090565b6152f891905b808211156152f45760008160009055506001016152dc565b5090565b90565b600080600084148061530d5750600083145b1561531b576000915061533a565b828402905082848281151561532c57fe5b0414151561533657fe5b8091505b50929150505600a165627a7a723058201792f7ec7a9316beba0afe469feadc0bbaa6627d32aea115f8001e371bc0320d0029",
  "source": "pragma solidity ^0.4.23;\n\nimport \"./library/SaferMath.sol\";\n\n/** @title Bounty Collector. */\ncontract BountyCollector {\n    using SaferMath for uint;\n\n    /* Enums and Structs */\n\n    enum DisputeStatus { None, Reviewable, Declined, Accepted, Withdrawn }\n    enum ProposalStatus { Reviewable, Declined, Accepted }\n    enum BountyStatus { Open, Cancelled, Completed, Withdrawn }\n\n    struct Dispute {\n      uint identifier;\n      uint bountyIdentifier;\n      uint proposalIdentifier;\n      uint timestamp;\n      string review;\n      DisputeStatus status;\n    }\n\n    struct Proposal {\n      uint identifier;\n      uint timestampCreation;\n      string description;\n      address poster;\n      string review;\n      uint timestampReview;\n      ProposalStatus status;\n      uint disputeIdentifier;\n    }\n\n    struct Bounty {\n        uint identifier;\n        uint timestamp;\n        string name;\n        string description;\n        uint reward;\n        address poster;\n        BountyStatus status;\n        mapping (uint => Proposal) proposals;\n        uint proposalsCounter;\n        uint rejectedProposalsCounter;\n    }\n\n    /* State variables */\n\n    uint public bountiesCounter;\n    uint public disputesCounter;\n    address public owner;\n    address public arbitrager;\n    bool public stopped;\n    uint public contractExpiration;\n    address public newContractAddress;\n    uint public disputeAllowance;\n    uint public disputeCost;\n\n    mapping (uint => Dispute) private disputes;\n    mapping (uint => Bounty) private bounties;\n    mapping (address => uint) private balances;\n\n    /* Events */\n\n    event contractStoppedByOwner();\n    event contractStoppedByAutoDepreciate();\n    event NewBounty(uint identifier);\n    event CancelledBounty(uint identifier);\n    event WithdrawnBounty(uint identifier);\n    event NewProposal(uint bountyIdentifier, uint proposalIdentifier);\n    event DeclinedProposal(uint bountyIdentifier, uint proposalIdentifier);\n    event AcceptedProposal(uint bountyIdentifier, uint proposalIdentifier);\n    event NewDispute(uint disputeIdentifier, uint bountyIdentifier, uint proposalIdentifier);\n    event DeclinedDispute(uint identifier);\n    event AcceptedDispute(uint identifier);\n    event WithdrawnDispute(uint identifier);\n    event WithdrawnFunds(address withdrawnAddress, uint amount);\n    event newContractAddressSet(address newContractAddress);\n\n    /* Modifiers */\n\n    modifier isNotStoppedOrExpired() { require (!stopped && !isExpired(), \"The contract is stopped or expired, this function can't be used\"); _;}\n    modifier isStoppedOrExpired() { require (stopped || isExpired(), \"The contract is not stopped or expired, this function can't be used\"); _;}\n    modifier onlyOwner() { require (msg.sender == owner, \"Only the contract owner can do this\"); _;}\n    modifier onlyArbitrager() { require (msg.sender == arbitrager, \"Only the contract arbitrager can do this\"); _;}\n    modifier onlyBountyPoster(uint _identifier) { require (msg.sender == bounties[_identifier].poster, \"Only the bounty poster can do this\"); _;}\n    modifier onlyNonBountyPoster(uint _identifier) { require (msg.sender != bounties[_identifier].poster, \"Only a non bounty poster can do this\"); _;}\n    modifier onlyProposalPoster(uint _bountyIdentifier, uint _proposalIdentifier) { require (msg.sender == bounties[_bountyIdentifier].proposals[_proposalIdentifier].poster, \"Only the proposal poster can do this\"); _;}\n    modifier bountyExists(uint _identifier) {require (_identifier != 0 && bountiesCounter >= _identifier, \"Bounty identifier does not exist\"); _;}\n    modifier openBounty(uint _identifier)  {require (bounties[_identifier].status == BountyStatus.Open, \"Bounty must be open\"); _;}\n    modifier correctlyFundedForDispute() { require ( msg.value == disputeCost, \"The dispute should be funded with the dispute cost\"); _;}\n    modifier sufficientlyFundedForDisputeAndReward() { require ( msg.value >= disputeCost, \"The dispute should be funded with the dispute cost\"); _;}\n    modifier sufficientlyFunded(uint _amount) { require (balances[msg.sender] >= _amount, \"No sufficient funds to be withdrawn\"); _;}\n\n    modifier proposalExists(uint _bountyIdentifier, uint _proposalIdentifier) {\n        require(_proposalIdentifier != 0 && bounties[_bountyIdentifier].proposalsCounter >= _proposalIdentifier, \"The proposal identifier given does not exist\");\n         _;\n    }\n\n    modifier latestProposal(uint _bountyIdentifier, uint _proposalIdentifier) {\n        require(_proposalIdentifier == bounties[_bountyIdentifier].rejectedProposalsCounter.add(1), \"This can only be run on the latest proposal\");\n        _;\n    }\n\n    modifier noOpenProposal(uint _bountyIdentifier) {\n        require(bounties[_bountyIdentifier].proposalsCounter == bounties[_bountyIdentifier].rejectedProposalsCounter, \"There is at least one not reviewed proposal\");\n        _;\n    }\n\n    modifier reviewableDispute(uint _identifier)  {require (disputes[_identifier].status == DisputeStatus.Reviewable, \"Dispute must be reviewable\"); _;}\n\n    /**\n    * case 1: Not in dispute period with a reviewable dispute\n    * case 2: In dispute period with a resolved dispute\n    */\n    modifier isNotDisputable(uint _bountyIdentifier) {\n      require ((bounties[_bountyIdentifier].proposals[bounties[_bountyIdentifier].rejectedProposalsCounter].timestampReview.add(disputeAllowance) < now &&\n        disputes[bounties[_bountyIdentifier].proposals[bounties[_bountyIdentifier].rejectedProposalsCounter].disputeIdentifier].status != DisputeStatus.Reviewable) ||\n        (bounties[_bountyIdentifier].proposals[bounties[_bountyIdentifier].rejectedProposalsCounter].timestampReview.add(disputeAllowance) > now &&\n        disputes[bounties[_bountyIdentifier].proposals[bounties[_bountyIdentifier].rejectedProposalsCounter].disputeIdentifier].status == DisputeStatus.Declined ||\n        disputes[bounties[_bountyIdentifier].proposals[bounties[_bountyIdentifier].rejectedProposalsCounter].disputeIdentifier].status == DisputeStatus.Accepted),\n        \"The previous proposal can still be disputed.\");\n      _;\n    }\n\n    /**\n    * Initial proposal is rejected, in the dispute period, and with no open dispute\n    */\n    modifier isDisputable(uint _bountyIdentifier, uint _proposalIdentifier) {\n      require ( (bounties[_bountyIdentifier].proposals[_proposalIdentifier].status == ProposalStatus.Declined &&\n        bounties[_bountyIdentifier].proposals[_proposalIdentifier].timestampReview.add(disputeAllowance) > now &&\n        bounties[_bountyIdentifier].proposals[_proposalIdentifier].disputeIdentifier == 0),\n        \"The proposal was not rejected, the dispute period is passed, or a dispute was already posted\");\n      _;\n    }\n\n    modifier openDispute(uint _identifier) {\n      require ( disputes[_identifier].status == DisputeStatus.Reviewable, \"This can only be used on an open dispute\");\n      _;\n    }\n\n    modifier onlyDisputePoster(uint _identifier) {\n      require (bounties[disputes[_identifier].bountyIdentifier].proposals[disputes[_identifier].proposalIdentifier].poster == msg.sender,\n        \"Only the disputer poster can do this\");\n      _;\n    }\n\n    /* Constructor */\n\n    /** @dev Constructor\n      * @param _durationSec The contract duration in seconds\n      * @param _disputeAllowanceSec The proposal dispute time allowance in seconds\n      * @param _disputeCostValueGwei The proposal dispute cost in Gwei\n      */\n    constructor(uint _durationSec, uint _disputeAllowanceSec, uint _disputeCostValueGwei) public {\n        owner = msg.sender;\n        arbitrager = owner;\n        bountiesCounter = 0;\n        disputesCounter = 0;\n        disputeCost = _disputeCostValueGwei.multiply(1000000000);\n        disputeAllowance = _disputeAllowanceSec;\n        contractExpiration = now.add(_durationSec);\n        disputes[0] = Dispute({identifier: 0, bountyIdentifier: 0, proposalIdentifier: 0, timestamp: 0, review: \"\", status: DisputeStatus.None});\n    }\n\n\n    /* functions */\n\n    /** @dev Add a bounty\n      * @param _name The name of the bounty\n      * @param _description An explanation of the bounty\n      */\n    function addBounty(string _name, string _description)\n      external\n      payable\n      isNotStoppedOrExpired() sufficientlyFundedForDisputeAndReward() {\n        bounties[bountiesCounter.add(1)] = Bounty({identifier: bountiesCounter.add(1), timestamp: now, name: _name, description: _description, reward: msg.value.subtract(disputeCost), poster: msg.sender, status: BountyStatus.Open, proposalsCounter: 0, rejectedProposalsCounter: 0});\n        bountiesCounter += 1;\n        emit NewBounty(bountiesCounter);\n    }\n\n    /** @dev Cancel a bounty\n      * @param _identifier The identifier of the bounty to be cancelled\n      */\n    function cancelBounty(uint _identifier)\n      external\n      isNotStoppedOrExpired() bountyExists(_identifier) onlyBountyPoster(_identifier) openBounty(_identifier) noOpenProposal(_identifier) isNotDisputable(_identifier) {\n        Bounty storage bounty = bounties[_identifier];\n        bounty.status = BountyStatus.Cancelled;\n        balances[bounty.poster] += bounty.reward.add(disputeCost);\n        emit CancelledBounty(_identifier);\n    }\n\n    /** @dev Post a proposal to a bounty\n      * @param _bountyIdentifier The identifier of the bounty to post the proposal on\n      * @param _description The explanation of the proposal\n      */\n    function postProposal(uint _bountyIdentifier, string _description)\n      external\n      isNotStoppedOrExpired() bountyExists(_bountyIdentifier) onlyNonBountyPoster(_bountyIdentifier) openBounty(_bountyIdentifier)\n      {\n        Bounty storage bounty = bounties[_bountyIdentifier];\n        bounty.proposals[bounty.proposalsCounter.add(1)] = Proposal({identifier: bounty.proposalsCounter.add(1), timestampCreation: now, description: _description, poster: msg.sender, review: \"\", timestampReview: 0, status: ProposalStatus.Reviewable, disputeIdentifier: 0});\n        bounty.proposalsCounter += 1;\n        emit NewProposal(_bountyIdentifier, bounty.proposalsCounter);\n    }\n\n    /** @dev Accept a proposal\n      * @param _bountyIdentifier The identifier of the bounty that has the proposal to be accepted\n      * @param _proposalIdentifier The identifier of the proposal to be accepted\n      * @param _review The review of the proposal\n      */\n    function acceptProposal(uint _bountyIdentifier, uint _proposalIdentifier, string _review)\n      external\n      isNotStoppedOrExpired() bountyExists(_bountyIdentifier) proposalExists(_bountyIdentifier, _proposalIdentifier) onlyBountyPoster(_bountyIdentifier) openBounty(_bountyIdentifier) latestProposal(_bountyIdentifier, _proposalIdentifier) isNotDisputable(_bountyIdentifier) {\n        uint bountyIdentifier = _bountyIdentifier;\n        uint proposalIdentifier = _proposalIdentifier;\n        Bounty storage bounty = bounties[bountyIdentifier];\n        Proposal storage proposal = bounty.proposals[proposalIdentifier];\n        proposal.review = _review;\n        proposal.timestampReview = now;\n        proposal.status = ProposalStatus.Accepted;\n        bounty.status = BountyStatus.Completed;\n        balances[proposal.poster] += bounty.reward;\n        balances[bounty.poster] += disputeCost;\n        emit AcceptedProposal(bountyIdentifier, proposalIdentifier);\n    }\n\n    /** @dev Decline a proposal\n      * @param _bountyIdentifier The identifier of the bounty that has the proposal to be declined\n      * @param _proposalIdentifier The identifier of the proposal to be declined\n      * @param _review The review of the proposal\n      */\n    function declineProposal(uint _bountyIdentifier, uint _proposalIdentifier, string _review)\n      external\n      isNotStoppedOrExpired() bountyExists(_bountyIdentifier) proposalExists(_bountyIdentifier, _proposalIdentifier) onlyBountyPoster(_bountyIdentifier) openBounty(_bountyIdentifier) latestProposal(_bountyIdentifier, _proposalIdentifier) isNotDisputable(_bountyIdentifier) {\n        Bounty storage bounty = bounties[_bountyIdentifier];\n        Proposal storage proposal = bounty.proposals[_proposalIdentifier];\n        proposal.review = _review;\n        proposal.timestampReview = now;\n        proposal.status = ProposalStatus.Declined;\n        bounty.rejectedProposalsCounter += 1;\n        emit DeclinedProposal(_bountyIdentifier, _proposalIdentifier);\n    }\n\n    /** @dev Open a dispute on a proposal review\n      * @param _bountyIdentifier The identifier of the bounty that has the proposal to be declined\n      * @param _proposalIdentifier The identifier of the proposal to be declined\n      * @param _review The review of the dispute\n      */\n    function disputeProposalReview(uint _bountyIdentifier, uint _proposalIdentifier, string _review)\n      external\n      payable\n      isNotStoppedOrExpired() bountyExists(_bountyIdentifier) proposalExists(_bountyIdentifier, _proposalIdentifier) onlyProposalPoster(_bountyIdentifier, _proposalIdentifier) openBounty(_bountyIdentifier) isDisputable(_bountyIdentifier, _proposalIdentifier) correctlyFundedForDispute() {\n        disputes[disputesCounter.add(1)] = Dispute({identifier: disputesCounter.add(1), bountyIdentifier: _bountyIdentifier, proposalIdentifier: _proposalIdentifier, timestamp: now, review: _review, status: DisputeStatus.Reviewable});\n        bounties[_bountyIdentifier].proposals[_proposalIdentifier].disputeIdentifier = disputesCounter.add(1);\n        disputesCounter += 1;\n        emit NewDispute(disputesCounter, _bountyIdentifier, _proposalIdentifier);\n      }\n\n    /** @dev Decline a dispute\n      * @param _identifier The identifier of the dispute to be declined\n      */\n    function declineDispute(uint _identifier)\n      external\n      isNotStoppedOrExpired() onlyArbitrager() openDispute(_identifier) {\n        disputes[_identifier].status = DisputeStatus.Declined;\n        balances[owner] += disputeCost;\n        emit DeclinedDispute(_identifier);\n    }\n\n    /** @dev Accept a dispute\n      * @param _identifier The identifier of the dispute to be declined\n      */\n    function acceptDispute(uint _identifier)\n      external\n      isNotStoppedOrExpired() onlyArbitrager() openDispute(_identifier) {\n        Dispute storage dispute = disputes[_identifier];\n        uint bountyIdentifier = dispute.bountyIdentifier;\n        uint proposalIdentifier = dispute.proposalIdentifier;\n        Bounty storage bounty = bounties[bountyIdentifier];\n        Proposal storage proposal = bounty.proposals[proposalIdentifier];\n        dispute.status = DisputeStatus.Accepted;\n        proposal.status = ProposalStatus.Accepted;\n        bounty.status = BountyStatus.Completed;\n        balances[proposal.poster] += bounty.reward.add(disputeCost);\n        balances[owner] += disputeCost;\n        emit AcceptedProposal(bountyIdentifier, proposalIdentifier);\n        emit AcceptedDispute(_identifier);\n    }\n\n    /** @dev Fetch a bounty\n      * @param _identifier The identifier of the bounty to be fetched\n      * @return name The name of the bounty\n      * @return description An explanation of the bounty\n      * @return reward The reward of the bounty in Wei\n      * @return poster The address of the bounty poster\n      * @return status The current status of the bounty\n      * @return proposalsCounter How many proposals were posted for this bounty\n      * @return rejectedProposalsCounter How many proposals were rejected for this bounty\n      * @return timestamp the timestamp of the bounty creation (EPOCH)\n      */\n    function fetchBounty(uint _identifier)\n      external\n      view\n      returns (string memory name, string memory description, uint reward, address poster, uint status, uint proposalsCounter, uint rejectedProposalsCounter, uint timestamp) {\n        Bounty memory bounty = bounties[_identifier];\n        name = bounty.name;\n        description = bounty.description;\n        reward = bounty.reward;\n        poster = bounty.poster;\n        status = uint(bounty.status);\n        proposalsCounter = bounty.proposalsCounter;\n        rejectedProposalsCounter = bounty.rejectedProposalsCounter;\n        timestamp = bounty.timestamp;\n    }\n\n    /** @dev Fetch a proposal\n     * @param _bountyIdentifier The identifier of the bounty that has the proposal to be fetched\n     * @param _proposalIdentifier The identifier of the proposal to be feteched\n     * @return poster The address of the proposal poster\n     * @return review The review of the proposal\n     * @return status The status of the proposal\n     * @return timestampCreation the timestamp of the proposal creation (EPOCH)\n     * @return timestampReview the timestamp of the review of the proposal creation (EPOCH)\n     */\n    function fetchProposal(uint _bountyIdentifier, uint _proposalIdentifier)\n      external\n      view\n      returns (string memory description, address poster, string memory review, ProposalStatus status, uint timestampReview, uint timestampCreation, uint disputeIdentifier) {\n        Proposal memory proposal = bounties[_bountyIdentifier].proposals[_proposalIdentifier];\n        description = proposal.description;\n        poster = proposal.poster;\n        status = proposal.status;\n        review = proposal.review;\n        timestampCreation = proposal.timestampCreation;\n        timestampReview = proposal.timestampReview;\n        disputeIdentifier = proposal.disputeIdentifier;\n    }\n\n    /** @dev Fetch a dispute\n      * @param _identifier The identifier of the dispute to be fetched\n      * @return bountyIdentifier The identifier of the bounty the disputed proposal is about\n      * @return proposalIdentifier The identifier the propsosal disputed is about\n      * @return timestamp The timestamp of the dispute creation\n      * @return review The review of the dispute\n      * @return status The status of the dispute\n      */\n    function fetchDispute(uint _identifier)\n      external\n      view\n      returns (uint bountyIdentifier, uint proposalIdentifier, uint timestamp, string memory review, uint status) {\n        Dispute memory dispute = disputes[_identifier];\n        bountyIdentifier = dispute.bountyIdentifier;\n        proposalIdentifier = dispute.proposalIdentifier;\n        timestamp = dispute.timestamp;\n        review = dispute.review;\n        status = uint(dispute.status);\n    }\n\n    /** @dev Fetch the user's balance\n      * @return balance The user's balance\n      */\n    function fetchMyBalance()\n      external\n      view\n      returns (uint balance) {\n        balance = balances[msg.sender];\n    }\n\n    /** @dev Withdrawal function to take from own balances\n      * @param _amount the amount to be withdrawn\n      */\n    function withdrawFunds(uint _amount)\n      external\n      payable\n      sufficientlyFunded(_amount) {\n      balances[msg.sender] -= _amount;\n      msg.sender.transfer(_amount);\n      emit WithdrawnFunds(msg.sender, _amount);\n    }\n\n    /** @dev Withdraw a dispute\n      * @param _identifier The identifier of the dispute to be declined\n      */\n    function withdrawDispute(uint _identifier)\n      external\n      onlyDisputePoster(_identifier) openDispute(_identifier) {\n        uint bountyIdentifier = disputes[_identifier].bountyIdentifier;\n        uint proposalIdentifier = disputes[_identifier].proposalIdentifier;\n        Proposal storage proposal = bounties[bountyIdentifier].proposals[proposalIdentifier];\n        proposal.disputeIdentifier = 0;\n        disputes[_identifier].status = DisputeStatus.Withdrawn;\n        balances[proposal.poster] += disputeCost;\n        emit WithdrawnDispute(_identifier);\n    }\n\n\n    /** @dev Withdrawal an open bounty once the contract is stopped or expired\n      * @param _identifier The identifier of the bounty that has to be withdrawn from\n      */\n    function EmergencyWithdrawBounty(uint _identifier)\n      external\n      isStoppedOrExpired() bountyExists(_identifier) openBounty(_identifier) onlyBountyPoster(_identifier) {\n        Bounty storage bounty = bounties[_identifier];\n        bounty.status = BountyStatus.Withdrawn;\n        balances[bounty.poster] += bounty.reward.add(disputeCost);\n        emit WithdrawnBounty(_identifier);\n    }\n\n    /** @dev Freeze the contract (e.g. after finding a bug)\n      */\n    function StopContract()\n      external\n      onlyOwner() {\n        stopped = true;\n        emit contractStoppedByOwner();\n    }\n\n    /** @dev Test if the contract is expired\n      *\n      */\n    function isExpired()\n      view\n      public\n      returns (bool) {\n        return (now > contractExpiration) ? true : false;\n    }\n\n    /** @dev Set new contract address\n      * @param _newContractAddress the new contract address\n      */\n    function setNewContractAddress(address _newContractAddress)\n      public\n      onlyOwner() isStoppedOrExpired() {\n        newContractAddress = _newContractAddress;\n        emit newContractAddressSet(newContractAddress);\n    }\n\n    /** @dev Fallback function\n      */\n    function()\n      external\n      payable {\n        revert();\n    }\n}\n",
  "sourcePath": "/home/thleruth/EthCode/bountyCollectorConsensys/BountyCollectorConsensysDevProgram18/truffle/contracts/BountyCollector.sol",
  "compiler": {
    "name": "solc",
    "version": "0.4.24+commit.e67f0147.Emscripten.clang"
  },
  "schemaVersion": "2.0.1",
  "updatedAt": "2019-01-25T15:19:28.113Z"
}